:020000040800F2
:100000000050002045150008C1140008C91400085C
:10001000D1140008D9140008E11400080000000001
:10002000000000000000000000000000A1660008C1
:10003000E91400080000000081680008F5140008B9
:100040008D1500088D1500088D1500088D15000808
:100050008D1500088D1500088D1500088D150008F8
:100060008D1500088D1500088D1500088D150008E8
:100070008D1500088D1500088D1500088D150008D8
:100080008D1500088D1500088D1500088D150008C8
:100090008D1500088D1500088D1500088D150008B8
:1000A0008D1500088D1500088D1500088D150008A8
:1000B000111500088D1500088D1500088D15000814
:1000C0008D1500088D1500088D1500088D15000888
:1000D0008D1500088D150008251500088D150008E0
:1000E0008D1500088D1500088D1500080000000012
:1000F0000000000000000000000000000000000000
:0C01000000000000000000005FF808F1A3
:1001100010B5054C237833B9044B13B10448AFF341
:1001200000800123237010BD60000020000000004B
:10013000846F000808B5034B1BB103490348AFF3B4
:10014000008008BD0000000064000020846F0008EB
:1001500080B500AF01F01CFA00F04CF800F032FA64
:1001600000F0B2F800F080F900F0D8F900F000FAE1
:1001700000F07CF800F02CF904F0D8F8114A0021C6
:10018000114804F01BF90346104A1360104A00217D
:10019000104804F013F903460F4A13600F4A002178
:1001A0000F4804F00BF903460E4A13600E4A002173
:1001B0000E4804F003F903460D4A136004F0D8F822
:1001C00000BFFDE7E46F0008FD06000838020020CC
:1001D000087000080D0700083C0200202C70000881
:1001E0001D07000840020020507000082D0700087D
:1001F0004402002080B590B000AF07F11803282218
:100200000021184606F0D0FD3B1D00221A605A60FE
:100210009A60DA601A610223BB610123BB6210237A
:10022000FB6200237B6307F11803184601F0CCFE44
:100230000346002B01D000F03FFB0F237B6000231F
:10024000BB600023FB6000233B6100237B613B1DFF
:100250000021184602F03AF90346002B01D000F0C5
:100260002BFB00BF4037BD4680BD000080B500AF0E
:10027000124B134A1A60114B124A5A600F4B00225C
:100280009A600E4B0022DA600C4B4FF480421A61E8
:100290000A4B00225A61094B00229A61074B002247
:1002A000DA61064B00221A62044801F049FD034658
:1002B000002B01D000F000FB00BF80BD7C000020BF
:1002C00000540040A086010080B592B000AF07F155
:1002D000400300221A605A6007F1240300221A60CA
:1002E0005A609A60DA601A615A619A613B1D202255
:1002F0000021184606F058FD334B344A1A60324B41
:1003000000225A60304B00229A602F4B4FF6FF724A
:10031000DA602D4B00221A612B4B00225A612A4BC6
:1003200000229A61284802F02FFB0346002B01D0DF
:1003300000F0C2FA00233B6400237B6407F1400312
:100340001946214803F09AF80346002B01D000F02B
:10035000B3FA60237B620023BB620023FB620023AD
:100360003B6300237B630023BB630023FB6307F134
:10037000240300221946144802F046FC0346002BD1
:1003800001D000F099FA00237B600023BB600023BA
:10039000FB6000233B6100237B614FF40053BB6192
:1003A00000233B623B1D1946074803F0C5F803468E
:1003B000002B01D000F080FA034800F0DBFF00BF03
:1003C0004837BD4680BD00BFD0000020002C014052
:1003D00080B586B000AF07F1080300221A605A60AA
:1003E0009A60DA603B4600221A605A601D4B4FF05B
:1003F00080421A601B4B47225A601A4B00229A60B7
:10040000184B4FF47A62DA60164B00221A61154BD2
:1004100000229A61134802F0E7F90346002B01D04D
:1004200000F04AFA4FF48053BB6007F10803194605
:100430000C4802F0ABFC0346002B01D000F03CFA64
:1004400000233B6000237B603B461946054803F0D0
:1004500015F80346002B01D000F02EFA00BF183724
:10046000BD4680BD1801002080B58AB000AF07F1FD
:10047000200300221A605A603B1D00221A605A6055
:100480009A60DA601A615A619A61224B224A1A60B4
:10049000204B00225A601F4B00229A601D4B4FF6E2
:1004A000FF72DA601B4B00221A611A4B00229A611C
:1004B000184802F069FA0346002B01D000F0FCF95D
:1004C00000233B6200237B6207F120031946114899
:1004D00002F0D4FF0346002B01D000F0EDF96023B9
:1004E0007B600023BB600023FB6000237B613B1D1E
:1004F00008221946074802F087FB0346002B01D06B
:1005000000F0DAF9034800F035FF00BF2837BD4698
:1005100080BD00BF600100200004004080B500AF36
:10052000114B124A1A60104B4FF416525A600E4B80
:1005300000229A600C4B0022DA600B4B00221A61F9
:10054000094B0C225A61084B00229A61064B00228B
:10055000DA61054803F053F80346002B01D000F0A0
:10056000ABF900BF80BD00BFA801002000380140EA
:1005700080B500AF114B124A1A60104B4FF416525F
:100580005A600E4B00229A600C4B0022DA600B4B33
:1005900000221A61094B0C225A61084B00229A6111
:1005A000064B0022DA61054803F029F80346002BC8
:1005B00001D000F081F900BF80BD00BFF001002034
:1005C0000044004080B588B000AF07F1100300225E
:1005D0001A605A609A60DA60444B9B69434A43F060
:1005E00010039361414B9B6903F01003FB60FB68B0
:1005F0003E4B9B693D4A43F0040393613B4B9B692F
:1006000003F00403BB60BB68384B9B69374A43F077
:1006100008039361354B9B6903F008037B607B689B
:1006200000224FF46041324801F058FB002240F2B2
:100630001221304801F052FB002241F21A012E48EB
:1006400001F04CFB4FF460433B6101237B610023CD
:10065000BB610223FB6107F110031946244801F036
:10066000B9F901233B6103237B6107F110031946AC
:10067000204801F0AFF940F212233B6101237B6176
:100680000023BB610223FB6107F1100319461948DF
:1006900001F0A0F9E0233B6100237B610023BB61F3
:1006A00007F110031946134801F094F941F21A03B7
:1006B0003B6101237B610023BB610223FB6107F1E6
:1006C000100319460C4801F085F94FF480633B6133
:1006D00000237B610023BB6107F110031946064824
:1006E00001F078F900BF2037BD4680BD0010024000
:1006F0000010014000080140000C014080B582B0AC
:1007000000AF7860012003F0EBFEFBE780B582B01C
:1007100000AF7860012003F0E3FEFBE780B582B014
:1007200000AF7860012003F0DBFEFBE780B588B006
:1007300000AF786000F0C6F80221594801F0E6FAEF
:100740004FF4FA7003F0CCFE0221554801F0DEFAB6
:100750000023FB610023BB61FB690133FB61FB6983
:10076000B3F57A7F63D34FF400414E4801F0CEFADF
:100770000023FB61BB690133BB61B9694A4BA3FB31
:100780000123DA0813469B0013445B00CA1A93B294
:100790002D339BB21946012000F016F9B969434B7D
:1007A000A3FB0123DA0813461B019B1ACA1A93B252
:1007B00037339BB21946112000F006F9BB699BB292
:1007C00003F00E039BB243F001039BB219462220B3
:1007D00000F0FAF8B969344BA3FB01239A081346D9
:1007E0009B001344CA1A002A21D1002000F0D6F839
:1007F0000346FB82012000F0D1F80346BB82222091
:1008000000F0CCF803467B82FB8A322B0FD1BB8AE7
:10081000002B0CD04FF48041224801F077FA3220AF
:1008200003F05EFE4FF480411E4801F06FFA002095
:1008300000F0B4F803463B82102000F0AFF8034606
:10084000FB811B4B1B883A8A9A420FD04FF48041A0
:10085000144801F05BFA642003F042FE4FF480413B
:10086000104801F053FA124A3B8A1380114B1B883F
:10087000FA899A420FD04FF400510A4801F046FA23
:10088000642003F02DFE4FF40051064801F03EFABB
:10089000084AFB891380012003F022FE5CE700BFB9
:1008A0000008014000100140CDCCCCCC898888885C
:1008B000480200204A02002080B400AF72B600BF98
:1008C00000BFFDE780B500AF00F06EFB8022002185
:1008D000144806F069FA00F08FF8134B00221A70E2
:1008E000124B00221A80124B00221A800D4B32222A
:1008F0001A800C4B2D225A800A4B01229A80094BF8
:100900003C221A84074B37225A84064B41F2342288
:10091000A3F84020034B4FF48072A3F8422000BF9D
:1009200080BD00BF50030020D0030020D203002070
:10093000D403002080B582B000AF0346FB710D4B9D
:100940001B88FF2B11D80B4B1B885A1C91B2094AEC
:1009500011801946084AFB795354084B1B88013310
:100960009AB2064B1A8000F083FB00BF0837BD46E1
:1009700080BD00BF4C0300204C020020D2030020A9
:1009800080B500AF044B1B88032B01D900F0C8F8D9
:1009900000F032F800BF80BD4C03002080B483B06B
:1009A00000AF0346FB80FB883F2B04D8FB88054A39
:1009B00032F8133000E0002318460C37BD4680BCE7
:1009C000704700BF5003002080B483B000AF0346DF
:1009D0000A46FB801346BB80FB883F2B04D8FB886C
:1009E0000449BA8821F8132000BF0C37BD4680BCEB
:1009F000704700BF5003002080B500AF054B0022B8
:100A00001A804FF480720021034806F0CDF900BF30
:100A100080BD00BF4C0300204C02002080B483B096
:100A200000AF03460A46FB801346BB80FB883F2B82
:100A30000AD8BB88002B07D0BB88402B04D8FA8883
:100A4000BB881344402B01DD002315E0FB880F2BEE
:100A500001D8012310E0FB880F2B04D9FB881F2B42
:100A600001D8012308E0FB881F2B04D9FB882F2B1A
:100A700001D8012300E0002318460C37BD4680BC96
:100A80007047000080B584B000AF78600B467B8073
:100A90007B881946786800F049FA0346FB817B8819
:100AA0005A1C7A801A467B681344FA89D2B21A70AB
:100AB000FB891B0A9AB27B88591C798019467B688E
:100AC0000B44D2B21A707B881946786800F098FA05
:100AD000044B1B8801339AB2024B1A8000BF1037B7
:100AE000BD4680BDD403002080B584B000AF03466E
:100AF000FB710B46BB7113467B71FB793B72BB7973
:100B000063F07F03DBB27B727B79BB7207F1080372
:100B100003211846FFF7B6FF00BF1037BD4680BD62
:100B200080B5CAB000AFB44B1B88032B03D8B34BBE
:100B300003221A70F2E1B24B1B7887F82331B04BD5
:100B40005B7887F8223197F82331012B03D0AB4B28
:100B500004221A70E2E1A84B1B88023BA84AD35C2E
:100B60001AB2A54B1B88013BA549CB5C1BB21B02EB
:100B70001BB213431BB2A7F820319F4B1B88023BCB
:100B80009BB219469E4800F0D1F90346A7F81E31E2
:100B9000B7F82021B7F81E319A4203D0974B0222B2
:100BA0001A70BBE197F82231102B00F0EB80102B6C
:100BB00000F3A881032B03D0062B00F09980A1E15C
:100BC0008D4B1B88072B08D897F8221197F82331F3
:100BD00003221846FFF788FFA0E1894B9B781BB2E0
:100BE0001B021AB2864BDB781BB213431BB2A7F869
:100BF0001031834B1B791BB21B021AB2804B5B79FD
:100C00001BB213431BB2A7F80E31B7F80E21B7F889
:100C1000103111461846FFF701FF034683F0010328
:100C2000DBB2002B08D097F8221197F8233102226B
:100C30001846FFF759FF71E107F59473A3F5927316
:100C400097F823211A7007F59473A3F5927397F818
:100C500022215A70B7F80E31DBB25B00DAB207F529
:100C60009473A3F592739A700023A7F826312AE0B3
:100C7000B7F81021B7F8263113449BB21846FFF796
:100C80008DFE0346A7F80C31B7F80C311B0A9AB257
:100C9000B7F826315B000333D1B207F59472A2F5A1
:100CA0009272D154B7F8263102335B00B7F80C21A9
:100CB000D1B207F59472A2F59272D154B7F82631E9
:100CC0000133A7F82631B7F82621B7F80E319A423A
:100CD000CED3B7F80E315B009BB203339AB23B1D03
:100CE00011461846FFF7CEFE444B00221A7015E15C
:100CF000414B1B88072B08D897F8221197F823310E
:100D000003221846FFF7F0FE08E13D4B9B781BB22B
:100D10001B021AB23A4BDB781BB213431BB2A7F883
:100D20001431374B1B791BB21B021AB2344B5B795F
:100D30001BB213431BB2A7F81231B7F814310121CB
:100D40001846FFF76BFE034683F00103DBB2002B6E
:100D500008D097F8221197F8233102221846FFF79E
:100D6000C3FEDBE0B7F81221B7F81431114618467C
:100D7000FFF72AFE06212248FFF784FE1F4B0022C0
:100D80001A70CBE01C4B1B88082B08D897F822114F
:100D900097F8233103221846FFF7A6FEBEE0184B52
:100DA0009B781BB21B021AB2154BDB781BB21343A4
:100DB0001BB2A7F81C31124B1B791BB21B021AB2D3
:100DC0000F4B5B791BB213431BB2A7F81A310C4BC4
:100DD0009B7987F81931084B1B881A4697F8193107
:100DE00009339A420ED097F8221197F82331032243
:100DF0001846FFF779FE91E04C030020D003002055
:100E00004C020020B7F81A21B7F81C3111461846D9
:100E1000FFF704FE034683F00103DBB2002B08D08A
:100E200097F8221197F8233102221846FFF75CFE4B
:100E300074E097F81921B7F81A315B009A4208D08C
:100E400097F8221197F8233103221846FFF74CFE3A
:100E500064E00023A7F8243124E0B7F824315B00D4
:100E60000733304AD35C1BB21B021AB2B7F82431E5
:100E700004335B002B49CB5C1BB213431BB2A7F8B6
:100E80001631B7F81C21B7F8243113449BB2B7F8D8
:100E9000162111461846FFF797FDB7F824310133A4
:100EA000A7F82431B7F82421B7F81A319A42D4D3DD
:100EB00097F8233187F8043197F8223187F8053104
:100EC000B7F81C311B0A9BB2DBB287F80631B7F8C2
:100ED0001C31DBB287F80731B7F81A311B0A9BB215
:100EE000DBB287F80831B7F81A31DBB287F809317D
:100EF00007F5827306211846FFF7C4FD0A4B00224E
:100F00001A700BE097F8221197F823310122184646
:100F1000FFF7EAFD044B03221A7000BF07F5947730
:100F2000BD4680BD4C020020D003002080B485B0B7
:100F300000AF78600B467B804FF6FF73FB81002388
:100F4000BB8126E0BB897A6813441B781A46FB896B
:100F50005340FB810023FB7215E0FB8903F0010382
:100F6000002B0AD0FB895B08FB81FB8983F4BF431C
:100F700083F07E03DB43FB8102E0FB895B08FB819E
:100F8000FB7A0133FB72FB7A072BE6D9BB8901336D
:100F9000BB81BA897B889A42D4D3FB89184614371F
:100FA000BD4680BC7047000080B582B000AF104BDA
:100FB0001B6800225A6201220E490F4802F0FAFB18
:100FC00002210E4800F0A2FE00237B6002E07B6855
:100FD00001337B607B6842F20F729342F7DD02219E
:100FE000064800F093FE00BF0837BD4680BD00BF35
:100FF00018010020D7030020F00100200008014064
:1010000080B584B000AF78600B467B8000F04AF872
:101010007A8832237968134802F041FB0346FB7358
:10102000012211490F4802F0C5FBFB7B002B14D1B4
:101030004FF400410D4800F069FE0023BB6002E060
:10104000BB680133BB60BB6841F287329342F7DD76
:101050004FF40041054800F059FE00BF1037BD466F
:1010600080BD00BFF0010020D70300200010014028
:1010700080B500AF094B1B6800225A62084B1B78F1
:1010800083F00103DBB2002B05D0044801F0FCFB28
:10109000034B01221A7000BF80BD00BF1801002061
:1010A000D603002080B500AF054B1B78002B05D080
:1010B000044801F03BFC024B00221A7000BF80BDC7
:1010C000D60300201801002080B582B000AF03468F
:1010D000FB71FB791846FFF72DFC00BF0837BD46B2
:1010E00080BD80B500AFFFF74BFC00BF80BD0000A6
:1010F00080B582B000AF78607B681B680A4A934273
:101100000ED14FF48041094800F000FE084B1B78D7
:101110001846FFF7D9FF01220549064802F04AFBAD
:1011200000BF0837BD4680BD0044004000100140AC
:10113000D7030020F001002080B582B000AF7860B6
:101140007B681B68054A934204D101220449054883
:1011500002F030FB00BF0837BD4680BD00440040B0
:10116000D7030020F001002080B582B000AF786086
:101170007B681B68B3F1804F08D14FF400510548DC
:1011800000F0C4FDFFF7ADFFFFF78CFF00BF08378D
:10119000BD4680BD0010014080B584B000AF184B43
:1011A0009B69174A43F001039361154B9B6903F058
:1011B0000103BB60BB68124BDB69114A43F08053EB
:1011C000D3610F4BDB6903F080537B607B680022A7
:1011D0000F216FF0010000F014FB0A4B5B68FB600D
:1011E000FB6823F0E063FB60FB6843F00073FB6087
:1011F000044AFB68536000BF1037BD4680BD00BF86
:10120000001002400000014080B588B000AF786057
:1012100007F1100300221A605A609A60DA607B6856
:101220001B68154A934223D1144B9B69134A43F020
:1012300008039361114B9B6903F00803FB60FB6893
:10124000C0233B6112237B610323FB6107F1100381
:1012500019460B4800F0BEFB084BDB69074A43F414
:101260000013D361054BDB6903F40013BB60BB685B
:1012700000BF2037BD4680BD005400400010024032
:10128000000C014080B58AB000AF786007F1180308
:1012900000221A605A609A60DA607B681B681F4AF5
:1012A000934225D11E4B9B691D4A43F40063936111
:1012B0001B4B9B6903F400637B617B69184B9B6943
:1012C000174A43F004039361154B9B6903F0040331
:1012D0003B613B694FF48073BB610223FB610223D6
:1012E0007B6207F1180319460E4800F073FB10E00B
:1012F0007B681B680C4A93420BD1094BDB69084A97
:1013000043F00203D361064BDB6903F00203FB6089
:10131000FB6800BF2837BD4680BD00BF002C0140E0
:1013200000100240000801400004004080B584B075
:1013300000AF78607B681B68B3F1804F13D10C4B12
:10134000DB690B4A43F00103D361094BDB6903F00E
:101350000103FB60FB68002205211C2000F051FA0C
:101360001C2000F06AFA00BF1037BD4680BD00BFE8
:101370000010024080B588B000AF786007F110031C
:1013800000221A605A609A60DA607B681B681F4A04
:10139000934219D11E4B9B691D4A43F00803936188
:1013A0001B4B9B6903F00803FB60FB684FF4005381
:1013B0003B6102237B610223FB6107F110031946A5
:1013C000144800F007FB1CE07B681B68124A93423C
:1013D00017D10F4B9B690E4A43F0080393610C4BE6
:1013E0009B6903F00803BB60BB6801233B610223D8
:1013F0007B610223FB6107F110031946054800F0E9
:10140000E9FA00BF2037BD4680BD00BF002C014077
:1014100000100240000C01400004004080B588B07C
:1014200000AF786007F1100300221A605A609A60DA
:10143000DA607B681B681F4A934237D11E4BDB6919
:101440001D4A43F40033D3611B4BDB6903F40033C3
:10145000FB60FB68184B9B69174A43F004039361D8
:10146000154B9B6903F00403BB60BB6804233B611D
:1014700002237B610323FB6107F1100319460F4828
:1014800000F0A8FA08233B6100237B610023BB61C5
:1014900007F110031946094800F09CFA00220521C3
:1014A000262000F0AEF9262000F0C7F900BF203753
:1014B000BD4680BD004400400010024000080140CD
:1014C00080B400AF00BFFDE780B400AF00BFFDE710
:1014D00080B400AF00BFFDE780B400AF00BFFDE700
:1014E00080B400AF00BFFDE780B400AF00BFBD46D1
:1014F00080BC704780B500AF00F090F804F03AFC73
:101500000346012B01D005F0DFF900BF80BD0000CC
:1015100080B500AF024801F086FA00BF80BD00BF71
:101520001801002080B500AF024802F069F900BF41
:1015300080BD00BFF001002080B400AF00BFBD46F9
:1015400080BC7047FFF7F8FF0B480C490C4A00239A
:1015500002E0D458C4500433C4188C42F9D3094A69
:10156000094C002301E013600432A242FBD305F0D2
:1015700081FCFEF7EDFD70470000002060000020B8
:10158000A870000860000020041F0020FEE7000093
:1015900080B500AF084B1B68074A43F01003136087
:1015A000032000F023F90F2000F008F8FFF7F4FD06
:1015B0000023184680BD00BF0020024080B582B0E5
:1015C00000AF7860124B1A68124B1B7819464FF423
:1015D0007A73B3FBF1F3B2FBF3F3184600F03BF977
:1015E0000346002B01D001230EE07B680F2B0AD8A5
:1015F000002279684FF0FF3000F003F9064A7B685B
:101600001360002300E0012318460837BD4680BD63
:1016100000000020080000200400002080B400AF7B
:10162000054B1B781A46054B1B681344034A13608D
:1016300000BFBD4680BC704708000020D8030020D2
:1016400080B400AF024B1B681846BD4680BC704793
:10165000D803002080B485B000AF78607B6803F0C9
:101660000703FB600C4BDB68BB60BA684FF6FF03F7
:101670001340BB60FB681A02BB68134343F0BF63AF
:1016800043F40033BB60044ABB68D36000BF143727
:10169000BD4680BC704700BF00ED00E080B400AFE5
:1016A000044BDB681B0A03F007031846BD4680BCE9
:1016B000704700BF00ED00E080B483B000AF034688
:1016C000FB7197F90730002B0BDBFB7903F01F024E
:1016D000064997F907305B09012000FA02F241F848
:1016E000232000BF0C37BD4680BC704700E100E0FE
:1016F00080B483B000AF03463960FB7197F90730BF
:10170000002B0ADB3B68DAB20C4997F9073012016B
:10171000D2B20B4483F800230AE03B68DAB20849EE
:10172000FB7903F00F03043B1201D2B20B441A768B
:1017300000BF0C37BD4680BC704700BF00E100E031
:1017400000ED00E080B489B000AFF860B9607A6065
:10175000FB6803F00703FB61FB69C3F10703042B7C
:1017600028BF0423BB61FB690433062B02D9FB6944
:10177000033B00E000237B614FF0FF32BB6902FABC
:1017800003F3DA43BB681A407B699A404FF0FF319C
:101790007B6901FA03F3D9437B680B401343184676
:1017A0002437BD4680BC704780B582B000AF7860FA
:1017B0007B68013BB3F1807F01D301230FE00A4A2C
:1017C0007B68013B53600F214FF0FF30FFF790FF24
:1017D000054B00229A60044B07221A60002318462A
:1017E0000837BD4680BD00BF10E000E080B582B084
:1017F00000AF78607868FFF72DFF00BF0837BD465F
:1018000080BD80B586B000AF0346B9607A60FB73D7
:1018100000237B61FFF742FF78617A68B9687869D5
:10182000FFF790FF024697F90F3011461846FFF771
:101830005FFF00BF1837BD4680BD80B582B000AFE6
:101840000346FB7197F907301846FFF735FF00BFD5
:101850000837BD4680BD80B582B000AF786078683B
:10186000FFF7A2FF034618460837BD4680BD80B487
:1018700085B000AF78600023FB737B6893F821305C
:10188000DBB2022B08D07B6804229A637B680022BB
:1018900083F82020012320E07B681B681A687B689E
:1018A0001B6822F00E021A607B681B681A687B684E
:1018B0001B6822F001021A607B681A6C7B68DB6B84
:1018C000012101FA02F25A607B68012283F821208B
:1018D0007B68002283F82020FB7B18461437BD4626
:1018E00080BC704780B584B000AF78600023FB7384
:1018F0007B6893F82130DBB2022B05D07B68042291
:101900009A630123FB7351E07B681B681A687B684C
:101910001B6822F00E021A607B681B681A687B68DD
:101920001B6822F001021A607B681B68224A9342FE
:1019300029D07B681B68214A934222D07B681B68B0
:101940001F4A93421AD07B681B681E4A934212D0EA
:101950007B681B681C4A93420AD07B681B681B4A41
:10196000934202D14FF480130EE04FF080730BE0EE
:101970004FF4803308E04FF4805305E04FF4807358
:1019800002E0102300E00123114A53607B6801222A
:1019900083F821207B68002283F820207B685B6B22
:1019A000002B03D07B685B6B78689847FB7B1846FD
:1019B0001037BD4680BD00BF080002401C00024039
:1019C0003000024044000240580002406C000240D7
:1019D0000000024080B48BB000AF78603960002313
:1019E0007B6200233B6269E101227B6A02FA03F316
:1019F000FB613B681B68FA691340BB61BA69FB690C
:101A00009A4240F058813B685B689A4A93425ED0A4
:101A1000984A934275D8984A934258D0964A93422E
:101A20006FD8964A934252D0944A934269D8944AC6
:101A300093424CD0924A934263D8924A934246D002
:101A4000904A93425DD8122B2AD8122B59D801A262
:101A500052F823F0CF1A0008A91A0008BB1A000890
:101A6000FD1A0008031B0008031B0008031B0008E5
:101A7000031B0008031B0008031B0008031B0008CE
:101A8000031B0008031B0008031B0008031B0008BE
:101A9000031B0008031B0008B11A0008C51A000840
:101AA000794A934213D02CE03B68DB683B6229E023
:101AB0003B68DB6804333B6224E03B68DB68083347
:101AC0003B621FE03B68DB680C333B621AE03B681B
:101AD0009B68002B02D104233B6213E03B689B68A8
:101AE000012B05D108233B627B68FA691A6109E082
:101AF00008233B627B68FA695A6103E000233B627A
:101B000000E000BFBB69FF2B01D87B6801E07B6868
:101B100004337B61BB69FF2B02D87B6A9B0002E028
:101B20007B6A083B9B003B617B691A680F213B691C
:101B300001FA03F3DB431A40396A3B6901FA03F304
:101B40001A437B691A603B685B6803F08053002B83
:101B500000F0B1804D4B9B694C4A43F00103936107
:101B60004A4B9B6903F00103BB60BB68484A7B6A30
:101B70009B08023352F82330FB607B6A03F00303B7
:101B80009B000F2202FA03F3DB43FA681340FB6069
:101B90007B68404A934213D07B683F4A93420DD002
:101BA0007B683E4A934207D07B683D4A934201D10D
:101BB000032306E0042304E0022302E0012300E003
:101BC00000237A6A02F0030292009340FA681343FA
:101BD000FB602F497B6A9B080233FA6841F8232097
:101BE0003B685B6803F48013002B06D02D4B9A688A
:101BF0002C49BB6913438B6006E02A4B9A68BB698A
:101C0000DB43284913408B603B685B6803F4001397
:101C1000002B06D0234BDA682249BB691343CB6003
:101C200006E0204BDA68BB69DB431E491340CB60FA
:101C30003B685B6803F40033002B06D0194B5A68ED
:101C40001849BB6913434B6006E0164B5A68BB69E1
:101C5000DB43144913404B603B685B6803F48033FB
:101C6000002B21D00F4B1A680E49BB6913430B6040
:101C700021E000BF000032100000311000002210EF
:101C8000000021100000121000001110001002408E
:101C90000000014000080140000C0140001001401C
:101CA00000140140000401400B4B1A68BB69DB4380
:101CB000094913400B607B6A01337B623B681A68F9
:101CC0007B6A22FA03F3002B7FF48EAE00BF00BFC5
:101CD0002C37BD4680BC70470004014080B483B0FF
:101CE00000AF78600B467B8013467B707B78002BBF
:101CF00003D07A887B681A6103E07B881A047B68CA
:101D00001A6100BF0C37BD4680BC704780B485B0F7
:101D100000AF78600B467B807B68DB68FB607A886D
:101D2000FB6813401A04FB68D9437B880B401A43B5
:101D30007B681A6100BF1437BD4680BC7047000045
:101D400080B584B000AF78607B68002B01D101239F
:101D50002BE17B6893F83D30DBB2002B06D17B682A
:101D6000002283F83C207868FFF74EFA7B68242233
:101D700083F83D207B681B681A687B681B6822F02B
:101D800001021A607B681B681A687B681B6842F452
:101D900000421A607B681B681A687B681B6822F423
:101DA00000421A6000F0DAFCF8607B685B68814AE8
:101DB000934207D8FB68804A934294BF01230023D3
:101DC000DBB206E0FB687D4A934294BF0123002307
:101DD000DBB2002B01D00123E7E0FB68784AA2FBCD
:101DE00003239B0CBB607B681B685B6823F03F018F
:101DF0007B681B68BA680A435A607B681B681B6A69
:101E000023F03F017B685B686A4A934202D8BB6853
:101E1000013309E0BB684FF4967202FB03F3694A91
:101E2000A2FB03239B0901337A6812680B431362F8
:101E30007B681B68DB6923F44F4222F0FF027B685A
:101E40005B685C498B4219D8FB68591E7B685B68EC
:101E50005B00B1FBF3F3591C40F6FC730B40002B05
:101E60000AD0FB68591E7B685B685B00B1FBF3F32B
:101E70000133C3F30B0351E004234FE07B689B68FD
:101E8000002B11D1FB68581E7B6859680B465B001C
:101E90000B44B0FBF3F30133C3F30B03002B0CBF74
:101EA00001230023DBB212E0FB68581E7B685968EF
:101EB0000B469B000B4499000B44B0FBF3F301333A
:101EC000C3F30B03002B0CBF01230023DBB2002B59
:101ED00001D0012322E07B689B68002B0ED1FB68B8
:101EE000581E7B6859680B465B000B44B0FBF3F34C
:101EF0000133C3F30B0343F400430FE0FB68581EA8
:101F00007B6859680B469B000B4499000B44B0FB5F
:101F1000F3F30133C3F30B0343F4404379680968D7
:101F20001343CB617B681B681B6823F0C0017B688F
:101F3000DA697B681B6A1A437B681B680A431A606C
:101F40007B681B689B6823F4034323F0FF037A68D4
:101F500011697A68D26811437A6812680B439360FA
:101F60007B681B68DB6823F0FF017B685A697B682C
:101F70009B691A437B681B680A43DA607B681B68AD
:101F80001A687B681B6842F001021A607B680022B5
:101F90001A647B68202283F83D207B6800221A6344
:101FA0007B68002283F83E20002318461037BD4688
:101FB00080BD00BFA08601007F841E00FF083D0099
:101FC00083DE1B43D34D621080B586B000AF7860CE
:101FD0007B68002B01D1012372E27B681B6803F050
:101FE0000103002B00F08780924B5B6803F00C0329
:101FF000042B0CD08F4B5B6803F00C03082B12D121
:102000008C4B5B6803F48033B3F5803F0BD1894B75
:102010001B6803F40033002B6CD07B685B68002BDB
:1020200068D101234CE27B685B68B3F5803F06D141
:10203000804B1B687F4A43F4803313602EE07B683B
:102040005B68002B0CD17B4B1B687A4A23F48033EE
:102050001360784B1B68774A23F4802313601DE0DC
:102060007B685B68B3F5A02F0CD1724B1B68714A7B
:1020700043F4802313606F4B1B686E4A43F4803334
:1020800013600BE06B4B1B686A4A23F480331360C8
:10209000684B1B68674A23F4802313607B685B6886
:1020A000002B13D0FFF7CCFA386108E0FFF7C8FA2D
:1020B00002463B69D31A642B01D9032300E25D4B2E
:1020C0001B6803F40033002BF0D014E0FFF7B8FADC
:1020D000386108E0FFF7B4FA02463B69D31A642B73
:1020E00001D90323ECE1534B1B6803F40033002BAD
:1020F000F0D100E000BF7B681B6803F00203002BF7
:1021000063D04C4B5B6803F00C03002B0BD0494BA6
:102110005B6803F00C03082B1CD1464B5B6803F48F
:102120008033002B16D1434B1B6803F00203002BB6
:1021300005D07B681B69012B01D00123C0E13D4B19
:102140001B6823F0F8027B685B69DB0039491343A5
:102150000B603AE07B681B69002B20D0364B0122D4
:102160001A60FFF76DFA386108E0FFF769FA024676
:102170003B69D31A022B01D90323A1E12D4B1B6824
:1021800003F00203002BF0D02A4B1B6823F0F80267
:102190007B685B69DB00274913430B6015E0264B26
:1021A00000221A60FFF74CFA386108E0FFF748FA9E
:1021B00002463B69D31A022B01D9032380E11D4B50
:1021C0001B6803F00203002BF0D17B681B6803F04F
:1021D0000803002B3AD07B689B69002B19D0174B62
:1021E00001221A60FFF72CFA386108E0FFF728FA9D
:1021F00002463B69D31A022B01D9032360E10D4B40
:102200005B6A03F00203002BF0D0012000F0CEFA4D
:102210001CE00A4B00221A60FFF712FA38610FE047
:10222000FFF70EFA02463B69D31A022B08D90323A3
:1022300046E100BF001002400000424280044242DA
:10224000924B5B6A03F00203002BE9D17B681B68A9
:1022500003F00403002B00F0A6800023FB758B4BDA
:10226000DB6903F08053002B0DD1884BDB69874A73
:1022700043F08053D361854BDB6903F08053BB602F
:10228000BB680123FB75824B1B6803F48073002B32
:1022900018D17F4B1B687E4A43F480731360FFF7AD
:1022A000CFF9386108E0FFF7CBF902463B69D31A52
:1022B000642B01D9032303E1754B1B6803F480737E
:1022C000002BF0D07B68DB68012B06D16F4B1B6ABB
:1022D0006E4A43F0010313622DE07B68DB68002B3C
:1022E0000CD16A4B1B6A694A23F001031362674BE6
:1022F0001B6A664A23F0040313621CE07B68DB68F8
:10230000052B0CD1614B1B6A604A43F00403136236
:102310005E4B1B6A5D4A43F0010313620BE05B4BAB
:102320001B6A5A4A23F001031362584B1B6A574A2F
:1023300023F0040313627B68DB68002B15D0FFF7E2
:102340007FF938610AE0FFF77BF902463B69D31A4F
:1023500041F28832934201D90323B1E04B4B1B6A0F
:1023600003F00203002BEED014E0FFF769F93861A7
:102370000AE0FFF765F902463B69D31A41F2883259
:10238000934201D903239BE0404B1B6A03F00203F5
:10239000002BEED1FB7D012B05D13C4BDB693B4A89
:1023A00023F08053D3617B68DB69002B00F08780CA
:1023B000364B5B6803F00C03082B61D07B68DB694C
:1023C000022B46D1334B00221A60FFF739F93861EE
:1023D00008E0FFF735F902463B69D31A022B01D911
:1023E00003236DE0294B1B6803F00073002BF0D131
:1023F0007B681B6AB3F5803F08D1244B5B6823F4EC
:1024000000327B689B68214913434B601F4B5B681C
:1024100023F474127B68196A7B685B6A0B431B495F
:1024200013434B601B4B01221A60FFF709F9386117
:1024300008E0FFF705F902463B69D31A022B01D9E0
:1024400003233DE0114B1B6803F00073002BF0D019
:1024500035E0104B00221A60FFF7F2F8386108E00F
:10246000FFF7EEF802463B69D31A022B01D903238A
:1024700026E0064B1B6803F00073002BF0D11EE032
:102480007B68DB69012B07D1012319E000100240B2
:1024900000700040600042420B4B5B68FB60FB68D1
:1024A00003F480327B681B6A9A4206D1FB6803F40E
:1024B00070127B685B6A9A4201D0012300E000231E
:1024C00018461837BD4680BD0010024080B584B064
:1024D00000AF786039607B68002B01D10123D0E028
:1024E0006A4B1B6803F007033A689A4210D9674B9E
:1024F0001B6823F0070265493B6813430B60634B7D
:102500001B6803F007033A689A4201D00123B8E040
:102510007B681B6803F00203002B20D07B681B68DC
:1025200003F00403002B05D0594B5B68584A43F471
:10253000E06353607B681B6803F00803002B05D041
:10254000534B5B68524A43F460535360504B5B6893
:1025500023F0F0027B689B684D4913434B607B6816
:102560001B6803F00103002B40D07B685B68012BE4
:1025700007D1474B1B6803F40033002B15D101230F
:102580007FE07B685B68022B07D1414B1B6803F03F
:102590000073002B09D1012373E03D4B1B6803F04E
:1025A0000203002B01D101236BE0394B5B6823F060
:1025B00003027B685B68364913434B60FFF740F8C2
:1025C000F8600AE0FFF73CF80246FB68D31A41F2D4
:1025D0008832934201D9032353E02D4B5B6803F00B
:1025E0000C027B685B689B009A42EBD1274B1B680F
:1025F00003F007033A689A4210D2244B1B6823F079
:10260000070222493B6813430B60204B1B6803F011
:1026100007033A689A4201D0012332E07B681B68C5
:1026200003F00403002B08D0194B5B6823F4E0622D
:102630007B68DB68164913434B607B681B6803F0BB
:102640000803002B09D0124B5B6823F460527B68AF
:102650001B69DB000E4913434B6000F021F8024672
:102660000B4B5B681B0903F00F030A49CB5C22FA92
:1026700003F3094A1360094B1B681846FEF79EFFD7
:10268000002318461037BD4680BD00BF0020024021
:1026900000100240747000080000002004000020B8
:1026A00080B487B000AF0023FB600023BB60002331
:1026B0007B6100237B6000233B611E4B5B68FB60FA
:1026C000FB6803F00C03042B02D0082B03D027E097
:1026D000194B3B6127E0FB689B0C03F00F03174A83
:1026E000D35C7B60FB6803F48033002B10D0114B6C
:1026F0005B685B0C03F00103114AD35CBB607B6831
:102700000D4A03FB02F2BB68B2FBF3F37B6104E00A
:102710007B680C4A02FB03F37B617B693B6102E04F
:10272000054B3B6100BF3B6918461C37BD4680BC6A
:10273000704700BF0010024000127A008C70000841
:102740009C70000800093D0080B400AF024B1B687C
:102750001846BD4680BC70470000002080B500AF21
:10276000FFF7F2FF0246054B5B681B0A03F0070305
:102770000349CB5C22FA03F3184680BD00100240E7
:102780008470000880B500AFFFF7DEFF0246054BFE
:102790005B68DB0A03F007030349CB5C22FA03F30F
:1027A000184680BD001002408470000880B485B0D7
:1027B00000AF78600A4B1B680A4AA2FB03235B0A3E
:1027C0007A6802FB03F3FB6000BFFB685A1EFA60E5
:1027D000002BF9D100BF00BF1437BD4680BC704745
:1027E00000000020D34D621080B582B000AF786049
:1027F0007B68002B01D1012341E07B6893F83D30D9
:10280000DBB2002B06D17B68002283F83C2078687D
:10281000FEF78CFD7B68022283F83D207B681A68F6
:102820007B6804331946104600F09CFB7B6801224C
:1028300083F846207B68012283F83E207B680122D2
:1028400083F83F207B68012283F840207B680122C7
:1028500083F841207B68012283F842207B680122B3
:1028600083F843207B68012283F844207B6801229F
:1028700083F845207B68012283F83D200023184619
:102880000837BD4680BD000080B485B000AF7860D9
:102890007B6893F83D30DBB2012B01D001233AE095
:1028A0007B68022283F83D207B681B68DA687B68BE
:1028B0001B6842F00102DA607B681B68184A934289
:1028C0000ED07B681B68B3F1804F09D07B681B6812
:1028D000144A934204D07B681B68134A934211D177
:1028E0007B681B689B6803F00703FB60FB68062B93
:1028F00010D07B681B681A687B681B6842F0010275
:102900001A6007E07B681B681A687B681B6842F0E6
:1029100001021A60002318461437BD4680BC704778
:10292000002C0140000400400008004080B483B047
:1029300000AF78607B681B68DA687B681B6822F0F0
:102940000102DA607B681B681A6A41F211131340B6
:10295000002B0FD17B681B681A6A40F24443134076
:10296000002B07D17B681B681A687B681B6822F004
:1029700001021A607B68012283F83D20002318467B
:102980000C37BD4680BC704780B582B000AF786020
:102990007B68002B01D1012341E07B6893F83D3037
:1029A000DBB2002B06D17B68002283F83C207868DC
:1029B000FEF768FC7B68022283F83D207B681A687A
:1029C0007B6804331946104600F0CCFA7B6801227C
:1029D00083F846207B68012283F83E207B68012231
:1029E00083F83F207B68012283F840207B68012226
:1029F00083F841207B68012283F842207B68012212
:102A000083F843207B68012283F844207B680122FD
:102A100083F845207B68012283F83D200023184677
:102A20000837BD4680BD80B584B000AF78607B6854
:102A30001B68DB68FB607B681B681B69BB60BB684D
:102A400003F00203002B20D0FB6803F00203002BED
:102A50001BD07B681B686FF002021A617B68012241
:102A60001A777B681B689B6903F00303002B03D074
:102A7000786800F05BFA05E0786800F04EFA786854
:102A800000F05DFA7B6800221A77BB6803F004034C
:102A9000002B20D0FB6803F00403002B1BD07B68C5
:102AA0001B686FF004021A617B6802221A777B6848
:102AB0001B689B6903F44073002B03D0786800F017
:102AC00035FA05E0786800F028FA786800F037FAFF
:102AD0007B6800221A77BB6803F00803002B20D024
:102AE000FB6803F00803002B1BD07B681B686FF0AA
:102AF00008021A617B6804221A777B681B68DB690D
:102B000003F00303002B03D0786800F00FFA05E010
:102B1000786800F002FA786800F011FA7B68002209
:102B20001A77BB6803F01003002B20D0FB6803F07A
:102B30001003002B1BD07B681B686FF010021A611A
:102B40007B6808221A777B681B68DB6903F4407393
:102B5000002B03D0786800F0E9F905E0786800F010
:102B6000DCF9786800F0EBF97B6800221A77BB6823
:102B700003F00103002B0CD0FB6803F00103002BD2
:102B800007D07B681B686FF001021A617868FEF756
:102B9000EBFABB6803F08003002B0CD0FB6803F05A
:102BA0008003002B07D07B681B686FF080021A61DE
:102BB000786800F01BFDBB6803F04003002B0CD0CD
:102BC000FB6803F04003002B07D07B681B686FF0A5
:102BD00040021A61786800F0BBF9BB6803F020037B
:102BE000002B0CD0FB6803F02003002B07D07B6880
:102BF0001B686FF020021A61786800F0EEFC00BFDD
:102C00001037BD4680BD000080B586B000AFF860CB
:102C1000B9607A600023FB75FB6893F83C30012BA8
:102C200001D10223AEE0FB68012283F83C207B68DF
:102C30000C2B00F29F8001A252F823F0712C0008A7
:102C4000752D0008752D0008752D0008B12C0008A1
:102C5000752D0008752D0008752D0008F32C00084F
:102C6000752D0008752D0008752D0008332D0008FE
:102C7000FB681B68B968184600F0E2F9FB681B683E
:102C80009A69FB681B6842F008029A61FB681B683E
:102C90009A69FB681B6822F004029A61FB681B6852
:102CA0009969BB681A69FB681B680A439A6164E00A
:102CB000FB681B68B968184600F028FAFB681B68B7
:102CC0009A69FB681B6842F400629A61FB681B68A2
:102CD0009A69FB681B6822F480629A61FB681B6832
:102CE0009969BB681B691A02FB681B680A439A61F1
:102CF00043E0FB681B68B968184600F071FAFB688E
:102D00001B68DA69FB681B6842F00802DA61FB683D
:102D10001B68DA69FB681B6822F00402DA61FB6851
:102D20001B68D969BB681A69FB681B680A43DA61CA
:102D300023E0FB681B68B968184600F0BBFAFB6823
:102D40001B68DA69FB681B6842F40062DA61FB68A1
:102D50001B68DA69FB681B6822F48062DA61FB6831
:102D60001B68D969BB681B691A02FB681B680A43A8
:102D7000DA6102E00123FB7500BFFB68002283F8E3
:102D80003C20FB7D18461837BD4680BD80B584B019
:102D900000AF786039600023FB737B6893F83C30A8
:102DA000012B01D10223B4E07B68012283F83C208F
:102DB0007B68022283F83D207B681B689B68BB60B0
:102DC000BB6823F07703BB60BB6823F47F43BB6021
:102DD0007B681B68BA689A603B681B68B3F5005F44
:102DE0003ED0B3F5005F00F28780B3F5805F00F05E
:102DF0008680B3F5805F7FD8702B1AD0702B7BD87C
:102E0000602B50D0602B77D8502B3CD0502B73D8F0
:102E1000402B58D0402B6FD8302B64D0302B6BD840
:102E2000202B60D0202B67D8002B5CD0102B5AD0E1
:102E300062E07B6818683B6899683B685A683B6841
:102E4000DB6800F0FCFA7B681B689B68BB60BB68B2
:102E500043F07703BB607B681B68BA689A604FE0F9
:102E60007B6818683B6899683B685A683B68DB6810
:102E700000F0E5FA7B681B689A687B681B6842F47F
:102E800080429A603CE07B6818683B6859683B6800
:102E9000DB681A4600F05CFA7B681B685021184614
:102EA00000F0B3FA2CE07B6818683B6859683B680F
:102EB000DB681A4600F07AFA7B681B6860211846C6
:102EC00000F0A3FA1CE07B6818683B6859683B680F
:102ED000DB681A4600F03CFA7B681B684021184604
:102EE00000F093FA0CE07B681A683B681B6819468F
:102EF000104600F08AFA03E00123FB7300E000BFF4
:102F00007B68012283F83D207B68002283F83C2007
:102F1000FB7B18461037BD4680BD80B483B000AF40
:102F2000786000BF0C37BD4680BC704780B483B06A
:102F300000AF786000BF0C37BD4680BC704780B4DE
:102F400083B000AF786000BF0C37BD4680BC7047CF
:102F500080B483B000AF786000BF0C37BD4680BC42
:102F60007047000080B485B000AF786039607B683E
:102F70001B68FB607B682F4A93420BD07B68B3F1E0
:102F8000804F07D07B682C4A934203D07B682B4A42
:102F9000934208D1FB6823F07003FB603B685B68D9
:102FA000FA681343FB607B68224A93420BD07B682C
:102FB000B3F1804F07D07B681F4A934203D07B68F0
:102FC0001E4A934208D1FB6823F44073FB603B68C0
:102FD000DB68FA681343FB60FB6823F080023B6800
:102FE0005B691343FB607B68FA681A603B689A6808
:102FF0007B68DA623B681A687B689A627B680D4A74
:10300000934203D13B681A697B681A637B6801228B
:103010005A617B681B6903F00103002B05D07B68B4
:103020001B6923F001027B681A6100BF1437BD469B
:1030300080BC7047002C01400004004000080040A4
:1030400080B487B000AF786039607B681B6A7B61B1
:103050007B681B6A23F001027B681A627B685B68ED
:103060003B617B689B69FB60FB6823F07003FB603E
:10307000FB6823F00303FB603B681B68FA6813439B
:10308000FB607B6923F002037B613B689B687A6984
:1030900013437B617B681C4A93420CD17B6923F00C
:1030A00008037B613B68DB687A6913437B617B695A
:1030B00023F004037B617B68134A934211D13B697F
:1030C00023F480733B613B6923F400733B613B68ED
:1030D0005B693A6913433B613B689B693A691343F7
:1030E0003B617B683A695A607B68FA689A613B6821
:1030F0005A687B685A637B687A691A6200BF1C371A
:10310000BD4680BC704700BF002C014080B487B032
:1031100000AF786039607B681B6A7B617B681B6AE3
:1031200023F010027B681A627B685B683B617B68F6
:103130009B69FB60FB6823F4E043FB60FB6823F4BE
:103140004073FB603B681B681B02FA681343FB601B
:103150007B6923F020037B613B689B681B017A69D4
:1031600013437B617B681D4A93420DD17B6923F039
:1031700080037B613B68DB681B017A6913437B61D9
:103180007B6923F040037B617B68144A934213D12F
:103190003B6923F480633B613B6923F400633B613B
:1031A0003B685B699B003A6913433B613B689B69E1
:1031B0009B003A6913433B617B683A695A607B68BC
:1031C000FA689A613B685A687B689A637B687A6997
:1031D0001A6200BF1C37BD4680BC7047002C0140FE
:1031E00080B487B000AF786039607B681B6A7B6110
:1031F0007B681B6A23F480727B681A627B685B6859
:103200003B617B68DB69FB60FB6823F07003FB605C
:10321000FB6823F00303FB603B681B68FA681343F9
:10322000FB607B6923F400737B613B689B681B0236
:103230007A6913437B617B681D4A93420DD17B6998
:1032400023F400637B613B68DB681B027A691343EC
:103250007B617B6923F480637B617B68144A9342C2
:1032600013D13B6923F480533B613B6923F4005342
:103270003B613B685B691B013A6913433B613B68F7
:103280009B691B013A6913433B617B683A695A6049
:103290007B68FA68DA613B685A687B68DA637B6846
:1032A0007A691A6200BF1C37BD4680BC704700BFF8
:1032B000002C014080B487B000AF786039607B6833
:1032C0001B6A3B617B681B6A23F480527B681A622D
:1032D0007B685B687B617B68DB69FB60FB6823F470
:1032E000E043FB60FB6823F44073FB603B681B68B2
:1032F0001B02FA681343FB603B6923F400533B61F4
:103300003B689B681B033A6913433B617B680F4A28
:10331000934209D17B6923F480437B613B685B69FD
:103320009B017A6913437B617B687A695A607B6889
:10333000FA68DA613B685A687B681A647B683A69A4
:103340001A6200BF1C37BD4680BC7047002C01408C
:1033500080B487B000AFF860B9607A60FB681B6A20
:103360007B61FB681B6A23F00102FB681A62FB6841
:103370009B693B613B6923F0F0033B617B681B0168
:103380003A6913433B617B6923F00A037B617A69E5
:10339000BB6813437B61FB683A699A61FB687A6991
:1033A0001A6200BF1C37BD4680BC704780B487B02E
:1033B00000AFF860B9607A60FB681B6A7B61FB68EC
:1033C0001B6A23F01002FB681A62FB689B693B6171
:1033D0003B6923F470433B617B681B033A691343E9
:1033E0003B617B6923F0A0037B61BB681B017A69A9
:1033F00013437B61FB683A699A61FB687A691A62D8
:1034000000BF1C37BD4680BC704780B485B000AF9C
:10341000786039607B689B68FB60FB6823F0700311
:10342000FB603A68FB68134343F00703FB607B686B
:10343000FA689A6000BF1437BD4680BC704780B4FC
:1034400087B000AFF860B9607A603B60FB689B684A
:103450007B617B6923F47F437B613B681A027B6855
:103460001A43BB6813437A6913437B61FB687A692B
:103470009A6000BF1C37BD4680BC704780B485B0E1
:1034800000AF786039607B6893F83C30012B01D144
:10349000022346E07B68012283F83C207B680222FD
:1034A00083F83D207B681B685B68FB607B681B685A
:1034B0009B68BB60FB6823F07003FB603B681B6884
:1034C000FA681343FB607B681B68FA685A607B6884
:1034D0001B68164A93420ED07B681B68B3F1804F7D
:1034E00009D07B681B68124A934204D07B681B6832
:1034F000104A93420CD1BB6823F08003BB603B6849
:103500005B68BA681343BB607B681B68BA689A60E3
:103510007B68012283F83D207B68002283F83C20F1
:10352000002318461437BD4680BC7047002C01406C
:10353000000400400008004080B485B000AF78600F
:1035400039600023FB607B6893F83C30012B01D18C
:1035500002233DE07B68012283F83C20FB6823F0D6
:10356000FF023B68DB681343FB60FB6823F4407297
:103570003B689B681343FB60FB6823F480623B68F5
:103580005B681343FB60FB6823F400623B681B68C5
:103590001343FB60FB6823F480523B681B691343B1
:1035A000FB60FB6823F400523B685B691343FB60DC
:1035B000FB6823F480423B68DB691343FB607B6854
:1035C0001B68FA685A647B68002283F83C20002359
:1035D00018461437BD4680BC704780B483B000AF36
:1035E000786000BF0C37BD4680BC704780B483B0A4
:1035F00000AF786000BF0C37BD4680BC704780B517
:1036000082B000AF78607B68002B01D1012342E0DB
:103610007B6893F84130DBB2002B06D17B68002237
:1036200083F840207868FDF7F9FE7B68242283F850
:1036300041207B681B68DA687B681B6822F40052B3
:10364000DA60786800F0B0FD7B681B681A697B68F7
:103650001B6822F490421A617B681B685A697B6878
:103660001B6822F02A025A617B681B68DA687B6853
:103670001B6842F40052DA607B6800225A647B685F
:10368000202283F841207B68202283F842207B6837
:1036900000225A63002318460837BD4680BD80B516
:1036A0008AB002AFF860B9603B601346FB8000232C
:1036B0007B61FB6893F84130DBB2202B75D1BB688E
:1036C000002B02D0FB88002B01D101236EE0FB68A8
:1036D00000225A64FB68212283F84120FDF7B0FFE5
:1036E0007861FB68FA889A84FB68FA88DA84FB6858
:1036F0009B68B3F5805F08D1FB681B69002B04D180
:103700000023FB61BB68BB6103E0BB68FB61002376
:10371000BB612EE03B6800937B6900228021F86842
:1037200000F014FB0346002B05D0FB68202283F831
:10373000412003233AE0FB69002B0BD1BB691B88B6
:103740001A46FB681B68C2F308025A60BB69023361
:10375000BB6107E0FB691A78FB681B685A60FB696C
:103760000133FB61FB68DB8C9BB2013B9AB2FB68C7
:10377000DA84FB68DB8C9BB2002BCBD13B680093D7
:103780007B6900224021F86800F0E0FA0346002B34
:1037900005D0FB68202283F84120032306E0FB6864
:1037A000202283F84120002300E00223184620371E
:1037B000BD4680BD80B584B000AFF860B9601346E7
:1037C000FB80FB6893F84230DBB2202B12D1BB6840
:1037D000002B02D0FB88002B01D101230BE0FB68FA
:1037E00000221A63FB881A46B968F86800F007FBE4
:1037F000034600E0022318461037BD4680BD000096
:1038000080B5BAB000AF78607B681B681B68C7F8EA
:10381000E4307B681B68DB68C7F8E0307B681B68B6
:103820005B69C7F8DC300023C7F8D8300023C7F83D
:10383000D430D7F8E43003F00F03C7F8D830D7F806
:10384000D830002B0FD1D7F8E43003F02003002B41
:1038500009D0D7F8E03003F02003002B03D07868BC
:1038600000F0E3FB5BE2D7F8D830002B00F0DE80FD
:10387000D7F8DC3003F00103002B06D1D7F8E03095
:1038800003F49073002B00F0D180D7F8E43003F0FC
:103890000103002B0BD0D7F8E03003F48073002B2A
:1038A00005D07B685B6C43F001027B685A64D7F8F3
:1038B000E43003F00403002B0BD0D7F8DC3003F026
:1038C0000103002B05D07B685B6C43F002027B6830
:1038D0005A64D7F8E43003F00203002B0BD0D7F87A
:1038E000DC3003F00103002B05D07B685B6C43F0F8
:1038F00004027B685A64D7F8E43003F00803002B15
:1039000011D0D7F8E03003F02003002B05D1D7F811
:10391000DC3003F00103002B05D07B685B6C43F0C7
:1039200008027B685A647B685B6C002B00F0F281B4
:10393000D7F8E43003F02003002B08D0D7F8E030AC
:1039400003F02003002B02D0786800F06EFB7B6848
:103950001B685B6903F04003002B14BF01230023A5
:10396000DBB2C7F8D4307B685B6C03F00803002B34
:1039700003D1D7F8D430002B4FD0786800F078FA14
:103980007B681B685B6903F04003002B41D07B68B8
:103990001B681433C7F89C30D7F89C3053E8003FBD
:1039A000C7F89830D7F8983023F04003C7F8D030E4
:1039B0007B681B681433D7F8D020C7F8A820C7F855
:1039C000A430D7F8A410D7F8A82041E80023C7F8FE
:1039D000A030D7F8A030002BD9D17B68DB6B002B4F
:1039E00013D07B68DB6B7E4A5A637B68DB6B1846BF
:1039F000FDF778FF0346002B16D07B68DB6B5B6B13
:103A00007A68D26B104698470EE07868FDF794FB11
:103A10000AE07868FDF790FB06E07868FDF78CFB1C
:103A20007B6800225A6475E100BF73E17B681B6B01
:103A3000012B40F04F81D7F8E43003F01003002B46
:103A400000F04881D7F8E03003F01003002B00F0BD
:103A500041810023BB607B681B681B68BB607B687F
:103A60001B685B68BB60BB687B681B685B6903F0B5
:103A70004003002B00F0B6807B68DB6B1B685B6843
:103A8000A7F8BE30B7F8BE30002B00F045817B6848
:103A90009B8DB7F8BE209A4280F03E817B68B7F8D4
:103AA000BE20DA857B68DB6B9B69202B00F0888069
:103AB0007B681B680C33C7F88830D7F8883053E828
:103AC000003FC7F88430D7F8843023F48073C7F8F8
:103AD000B8307B681B680C33D7F8B820C7F894203F
:103AE000C7F89030D7F89010D7F8942041E8002319
:103AF000C7F88C30D7F88C30002BD9D17B681B6885
:103B000014337B677B6F53E8003F3B673B6F23F0C9
:103B10000103C7F8B4307B681B681433D7F8B420AE
:103B2000C7F88020FB67F96FD7F8802041E80023B1
:103B3000BB67BB6F002BE1D17B681B6814333B660E
:103B40003B6E53E8003FFB65FB6D23F04003C7F875
:103B5000B0307B681B681433D7F8B020FA66BB66B8
:103B6000B96EFA6E41E800237B667B6E002BE3D1D1
:103B70007B68202283F842207B6800221A637B68DE
:103B80001B680C33FB64FB6C53E8003FBB64BB6CED
:103B900023F01003C7F8AC307B681B680C33D7F8F0
:103BA000AC20BA657B65796DBA6D41E800233B6551
:103BB0003B6D002BE3D17B68DB6B1846FDF757FEAE
:103BC0007B6802225A637B689A8D7B68DB8D9BB28F
:103BD000D31A9BB21946786800F0ADF89CE000BF9C
:103BE000353F00087B689A8D7B68DB8D9BB2D31ACA
:103BF000A7F8CE307B68DB8D9BB2002B00F08E8067
:103C0000B7F8CE30002B00F089807B681B680C333E
:103C1000BB63BB6B53E8003F7B637B6B23F4907308
:103C2000C7F8C8307B681B680C33D7F8C8207A64A3
:103C30003B64396C7A6C41E80023FB63FB6B002B1F
:103C4000E3D17B681B6814337B627B6A53E8003FD7
:103C50003B623B6A23F00103C7F8C4307B681B68F2
:103C60001433D7F8C4203A63FB62F96A3A6B41E82F
:103C70000023BB62BB6A002BE3D17B68202283F860
:103C800042207B6800221A637B681B680C333B610F
:103C90003B6953E8003FFB60FB6823F01003C7F863
:103CA000C0307B681B680C33D7F8C020FA61BB6159
:103CB000B969FA6941E800237B617B69002BE3D194
:103CC0007B6802225A63B7F8CE301946786800F054
:103CD00032F823E0D7F8E43003F08003002B09D05A
:103CE000D7F8E03003F08003002B03D0786800F0B1
:103CF00035F914E0D7F8E43003F04003002B0ED080
:103D0000D7F8E03003F04003002B08D0786800F0CB
:103D100074F904E000BF02E000BF00E000BFE83734
:103D2000BD4680BD80B483B000AF786000BF0C3763
:103D3000BD4680BC704780B483B000AF78600B464E
:103D40007B8000BF0C37BD4680BC704780B586B015
:103D500000AFF860B9603B601346FB713BE03B6A23
:103D6000B3F1FF3F37D0FDF76BFC02463B68D31A37
:103D70003A6A9A4202D33B6A002B01D103233AE00C
:103D8000FB681B68DB6803F00403002B23D0BB68CF
:103D9000802B20D0BB68402B1DD0FB681B681B68A4
:103DA00003F00803082B16D100237B61FB681B6816
:103DB0001B687B61FB681B685B687B617B69F868DB
:103DC00000F056F8FB6808225A64FB68002283F86A
:103DD000402001230FE0FB681B681A68BB68134092
:103DE000BA689A420CBF01230023DBB21A46FB7962
:103DF0009A42B4D0002318461837BD4680BD80B41F
:103E000085B000AFF860B9601346FB80FB68BA6804
:103E10009A62FB68FA889A85FB68FA88DA85FB68FB
:103E200000225A64FB68222283F84220FB681B6947
:103E3000002B07D0FB681B68DA68FB681B6842F43C
:103E40008072DA60FB681B685A69FB681B6842F085
:103E500001025A61FB681B68DA68FB681B6842F064
:103E60002002DA60002318461437BD4680BC704734
:103E700080B495B000AF78607B681B680C337B63BF
:103E80007B6B53E8003F3B633B6B23F49073FB6415
:103E90007B681B680C33FA6C3A64FB63F96B3A6C11
:103EA00041E80023BB63BB6B002BE5D17B681B683B
:103EB00014333B623B6A53E8003FFB61FB6923F02C
:103EC0000103BB647B681B681433BA6CFA62BB6283
:103ED000B96AFA6A41E800237B627B6A002BE5D16C
:103EE0007B681B6B012B19D17B681B680C33FB6053
:103EF000FB6853E8003FBB60BB6823F010037B64A2
:103F00007B681B680C337A6CBA617B617969BA692A
:103F100041E800233B613B69002BE5D17B6820220F
:103F200083F842207B6800221A6300BF5437BD46E5
:103F300080BC704780B584B000AF78607B685B6AF6
:103F4000FB60FB680022DA85FB680022DA84F868EF
:103F5000FDF7F2F800BF1037BD4680BD80B485B0D4
:103F600000AF78607B6893F84130DBB2212B3ED103
:103F70007B689B68B3F5805F14D17B681B69002B5D
:103F800010D17B681B6AFB60FB681B881A467B6844
:103F90001B68C2F308025A607B681B6A9A1C7B6824
:103FA0001A6208E07B681B6A591C7A6811621A78E9
:103FB0007B681B685A607B68DB8C9BB2013B9BB2C1
:103FC0007A681946D184002B0FD17B681B68DA68A8
:103FD0007B681B6822F08002DA607B681B68DA6805
:103FE0007B681B6842F04002DA60002300E0022395
:103FF00018461437BD4680BC704780B582B000AF0C
:1040000078607B681B68DA687B681B6822F0400276
:10401000DA607B68202283F841207868FFF782FE0F
:10402000002318460837BD4680BD80B58CB000AF70
:1040300078607B6893F84230DBB2222B40F0AE8090
:104040007B689B68B3F5805F17D17B681B69002B89
:1040500013D10023FB627B689B6ABB627B681B6891
:104060005B689BB2C3F308039AB2BB6A1A807B6891
:104070009B6A9A1C7B689A6226E07B689B6AFB625B
:104080000023BB627B689B68B3F5805F07D07B68C9
:104090009B68002B0AD17B681B69002B06D17B68CB
:1040A0001B685B68DAB2FB6A1A7008E07B681B6801
:1040B0005B68DBB203F07F03DAB2FB6A1A707B68DD
:1040C0009B6A5A1C7B689A627B68DB8D9BB2013BC2
:1040D0009BB27A681946D185002B5DD17B681B683D
:1040E000DA687B681B6822F02002DA607B681B6854
:1040F000DA687B681B6822F48072DA607B681B6870
:104100005A697B681B6822F001025A617B68202291
:1041100083F842207B6800225A637B681B6B012B6B
:1041200035D17B6800221A637B681B680C337B6186
:104130007B6953E8003F3B613B6923F010037B62DE
:104140007B681B680C337A6A3A62FB61F9693A6AE8
:1041500041E80023BB61BB69002BE5D17B681B688C
:104160001B6803F01003102B0AD10023FB607B684F
:104170001B681B68FB607B681B685B68FB60FB68F7
:104180007B689B8D19467868FFF7D5FD02E078685B
:10419000FCF7AEFF002302E0002300E002231846F4
:1041A0003037BD4680BD000080B584B000AF786078
:1041B0007B681B681B6923F440517B68DA687B6865
:1041C0001B680A431A617B689A687B681B691A43FB
:1041D0007B685B691343BB607B681B68DB6823F407
:1041E000B05323F00C037A681268B9680B43D360AC
:1041F0007B681B685B6923F440717B689A697B6804
:104200001B680A435A617B681B682C4A934203D19E
:10421000FEF7B8FAF86002E0FEF7A0FAF860FA6874
:1042200013469B0013449A001A447B685B689B000A
:10423000B2FBF3F3224AA2FB03235B091901FA68DC
:1042400013469B0013449A001A447B685B689B00EA
:10425000B2FBF3F21A4BA3FB02035B09642000FBE1
:1042600003F3D31A1B013233154AA2FB03235B0964
:1042700003F0F0031944FA6813469B0013449A00B4
:104280001A447B685B689B00B2FBF3F20C4BA3FB08
:1042900002035B09642000FB03F3D31A1B013233D2
:1042A000074AA2FB03235B0903F00F027B681B682C
:1042B0000A449A6000BF1037BD4680BD00380140F7
:1042C0001F85EB5180B483B000AF03463960FB71AA
:1042D00097F90730002B0ADB3B68DAB20C4997F9F3
:1042E00007301201D2B20B4483F800230AE03B6886
:1042F000DAB20849FB7903F00F03043B1201D2B292
:104300000B441A7600BF0C37BD4680BC704700BF17
:1043100000E100E000ED00E080B500AF00216FF0AB
:104320000400FFF7CFFF00BF80BD000080B483B062
:1043300000AFEFF305833B603B68002B03D06FF0C9
:1043400005037B600CE0094B1B68002B05D1074B74
:1043500001221A6000237B6002E04FF0FF337B6094
:104360007B6818460C37BD4680BC7047DC030020D4
:1043700080B582B000AFEFF305833B603B68002B54
:1043800003D06FF005037B6010E00B4B1B68012B23
:1043900009D1FFF7C1FF084B02221A6001F08AF829
:1043A00000237B6002E04FF0FF337B607B681846A0
:1043B0000837BD4680BD00BFDC03002080B58EB04D
:1043C00004AFF860B9607A6000233B61EFF30583C6
:1043D0007B617B69002B7ED1FB68002B7BD0802327
:1043E0003B621823FB6100237B624FF0FF33BB610C
:1043F0007B68002B45D07B681B68002B02D07B6854
:104400001B687B627B689B69002B02D07B689B6981
:10441000FB61FB69002B08D0FB69382B05D87B6852
:104420005B6803F00103002B01D0002354E07B689C
:104430005B69002B03D07B685B699B083B627B68F0
:104440009B68002B0ED07B68DB68A72B0AD97B68A2
:104450001B69002B06D07B685B69002B02D001230F
:10446000BB6110E07B689B68002B0CD17B68DB682C
:10447000002B08D17B681B69002B04D10023BB6192
:1044800001E00023BB61BB69012B10D17B681B6974
:104490007A68926802920193FB690093BB683A6A5A
:1044A000796AF86800F012FE03463B6113E0BB69CD
:1044B000002B10D13B6A9AB207F110030193FB69FC
:1044C0000093BB68796AF86800F060FE0346012B30
:1044D00001D000233B613B6918462837BD4680BDAB
:1044E00080B584B000AF7860EFF30583BB60BB6834
:1044F000002B03D06FF00503FB6007E00023FB6097
:104500007B68002B02D0786800F09EFFFB6818469D
:104510001037BD4680BD000080B485B000AFF860A4
:10452000B9607A60FB68064A1A60BB68054A1A607F
:104530007B6880221A6000BF1437BD4680BC70477C
:10454000E00300208804002080B485B000AFF8604C
:10455000B9607A60FB68074A1A60BB68064A1A604D
:104560007B684FF480721A6000BF1437BD4680BC70
:10457000704700BF880600203007002080B483B059
:1045800000AF78607B6803F108027B685A607B6843
:104590004FF0FF329A607B6803F108027B68DA60B3
:1045A0007B6803F108027B681A617B6800221A604D
:1045B00000BF0C37BD4680BC704780B483B000AFED
:1045C00078607B6800221A6100BF0C37BD4680BC52
:1045D000704780B485B000AF786039607B685B68F5
:1045E000FB603B68FA685A60FB689A683B689A60AF
:1045F000FB689B683A685A60FB683A689A603B6857
:104600007A681A617B681B685A1C7B681A6000BF55
:104610001437BD4680BC704780B485B000AF786069
:1046200039603B681B68BB60BB68B3F1FF3F03D1D7
:104630007B681B69FB600CE07B680833FB6002E071
:10464000FB685B68FB60FB685B681B68BA689A4242
:10465000F6D2FB685A683B685A603B685B683A6808
:104660009A603B68FA689A60FB683A685A603B68EF
:104670007A681A617B681B685A1C7B681A6000BFE5
:104680001437BD4680BC704780B485B000AF7860F9
:104690007B681B69FB607B685B687A6892689A60DC
:1046A0007B689B687A6852685A60FB685B687A68C6
:1046B0009A4203D17B689A68FB685A607B68002243
:1046C0001A61FB681B685A1EFB681A60FB681B684E
:1046D00018461437BD4680BC7047000080B584B0D2
:1046E00000AF786039607B68FB60FB68002B0BD102
:1046F0004FF0500383F31188BFF36F8FBFF34F8FD9
:10470000BB6000BF00BFFDE702F060F8FB681A68FD
:10471000FB68DB6BF968096C01FB03F31A44FB6867
:104720009A60FB6800229A63FB681A68FB685A600B
:10473000FB681A68FB68DB6B013BF968096C01FBDD
:1047400003F31A44FB68DA60FB68FF2283F8442015
:10475000FB68FF2283F845203B68002B14D1FB68DF
:104760001B69002B1AD0FB681033184601F03CF986
:104770000346002B12D00D4B4FF080521A60BFF34E
:104780004F8FBFF36F8F09E0FB6810331846FFF7B8
:10479000F5FEFB6824331846FFF7F0FE02F046F8FA
:1047A000012318461037BD4680BD00BF04ED00E070
:1047B00080B58EB002AFF860B9607A603B60FB688C
:1047C000002B0BD14FF0500383F31188BFF36F8F91
:1047D000BFF34F8FBB6200BF00BFFDE73B68002BFC
:1047E0000BD14FF0500383F31188BFF36F8FBFF3EA
:1047F0004F8F7B6200BF00BFFDE77B68002B02D0BC
:10480000BB68002B01D0012300E00023002B0BD15B
:104810004FF0500383F31188BFF36F8FBFF34F8FB7
:104820003B6200BF00BFFDE77B68002B02D1BB6885
:10483000002B01D1012300E00023002B0BD14FF00E
:10484000500383F31188BFF36F8FBFF34F8FFB616A
:1048500000BF00BFFDE750237B617B69502B0BD06D
:104860004FF0500383F31188BFF36F8FBFF34F8F67
:10487000BB6100BF00BFFDE77B693B68FB62FB6A71
:10488000002B0DD0FB6A012283F8462097F83820D0
:10489000FB6A009313467A68B968F86800F005F877
:1048A000FB6A18463037BD4680BD80B584B000AF86
:1048B000F860B9607A60FB70BB68002B03D1BB69FC
:1048C000BA691A6002E0BB697A681A60BB69FA6863
:1048D000DA63BB69BA681A640121B869FFF7FEFEA2
:1048E000BB69FA7883F84C2000BF1037BD4680BD05
:1048F00080B58EB000AFF860B9607A603B6000238D
:104900007B63FB683B633B6B002B0BD14FF0500389
:1049100083F31188BFF36F8FBFF34F8FBB6200BF6C
:1049200000BFFDE7BB68002B03D13B6B1B6C002B6A
:1049300001D1012300E00023002B0BD14FF05003E5
:1049400083F31188BFF36F8FBFF34F8F7B6200BF7C
:1049500000BFFDE73B68022B03D13B6BDB6B012BF8
:1049600001D1012300E00023002B0BD14FF05003B5
:1049700083F31188BFF36F8FBFF34F8F3B6200BF8C
:1049800000BFFDE701F0F6F90346002B02D17B687A
:10499000002B01D1012300E00023002B0BD14FF0AD
:1049A000500383F31188BFF36F8FBFF34F8FFB6109
:1049B00000BF00BFFDE701F009FF3B6B9A6B3B6B4B
:1049C000DB6B9A4202D33B68022B29D13A68B96863
:1049D000386B00F00FFAF8623B6B5B6A002B10D06B
:1049E0003B6B2433184600F0FFFF0346002B13D027
:1049F0003F4B4FF080521A60BFF34F8FBFF36F8F62
:104A00000AE0FB6A002B07D0394B4FF080521A6046
:104A1000BFF34F8FBFF36F8F01F008FF012363E0F7
:104A20007B68002B03D101F001FF00235CE07B6B6E
:104A3000002B06D107F11403184601F039F80123C1
:104A40007B6301F0F3FE00F0A5FD01F0BFFE3B6BC0
:104A500093F844305BB2B3F1FF3F03D13B6B0022CC
:104A600083F844203B6B93F845305BB2B3F1FF3FD2
:104A700003D13B6B002283F8452001F0D7FE3A1D9D
:104A800007F114031146184601F028F80346002BDD
:104A900024D1386B00F0A6FA0346002B18D03B6BEC
:104AA00010337A681146184600F04CFF386B00F05E
:104AB00031FA00F07DFD0346002B7FF47CAF0C4BF8
:104AC0004FF080521A60BFF34F8FBFF36F8F72E7C2
:104AD000386B00F01FFA00F06BFD6CE7386B00F0EC
:104AE00019FA00F065FD002318463837BD4680BD31
:104AF00004ED00E080B590B000AFF860B9607A6076
:104B00003B60FB68BB63BB6B002B0BD14FF05003CA
:104B100083F31188BFF36F8FBFF34F8FBB6200BF6A
:104B200000BFFDE7BB68002B03D1BB6B1B6C002BE8
:104B300001D1012300E00023002B0BD14FF05003E3
:104B400083F31188BFF36F8FBFF34F8F7B6200BF7A
:104B500000BFFDE73B68022B03D1BB6BDB6B012B76
:104B600001D1012300E00023002B0BD14FF05003B3
:104B700083F31188BFF36F8FBFF34F8F3B6200BF8A
:104B800000BFFDE701F0E4FEEFF311824FF05003A8
:104B900083F31188BFF36F8FBFF34F8FFA61BB614F
:104BA000FB697B63BB6B9A6BBB6BDB6B9A4202D37B
:104BB0003B68022B2FD1BB6B93F8453087F833301D
:104BC000BB6B9B6BFB623A68B968B86B00F012F97B
:104BD00097F93330B3F1FF3F12D1BB6B5B6A002B07
:104BE00016D0BB6B2433184600F0FEFE0346002BA4
:104BF0000ED07B68002B0BD07B6801221A6007E087
:104C000097F833300133DBB25AB2BB6B83F84520DF
:104C10000123FB6301E00023FB637B6B7B617B690A
:104C200083F3118800BFFB6B18464037BD4680BD3B
:104C300080B58CB000AFF860B9607A600023FB6289
:104C4000FB68BB62BB6A002B0BD14FF0500383F3B0
:104C50001188BFF36F8FBFF34F8F3B6200BF00BF60
:104C6000FDE7BB68002B03D1BB6A1B6C002B01D195
:104C7000012300E00023002B0BD14FF0500383F3FE
:104C80001188BFF36F8FBFF34F8FFB6100BF00BF71
:104C9000FDE701F06FF80346002B02D17B68002B83
:104CA00001D1012300E00023002B0BD14FF0500372
:104CB00083F31188BFF36F8FBFF34F8FBB6100BFCA
:104CC00000BFFDE701F082FDBB6A9B6B7B627B6AE4
:104CD000002B1FD0B968B86A00F0F6F87B6A5A1E3C
:104CE000BB6A9A63BB6A1B69002B0FD0BB6A103387
:104CF000184600F079FE0346002B07D03C4B4FF0DE
:104D000080521A60BFF34F8FBFF36F8F01F08EFD9B
:104D1000012369E07B68002B03D101F087FD0023AC
:104D200062E0FB6A002B06D107F11003184600F081
:104D3000BFFE0123FB6201F079FD00F02BFC01F0C6
:104D400045FDBB6A93F844305BB2B3F1FF3F03D13A
:104D5000BB6A002283F84420BB6A93F845305BB2FB
:104D6000B3F1FF3F03D1BB6A002283F8452001F075
:104D70005DFD3A1D07F110031146184600F0AEFE26
:104D80000346002B23D1B86A00F016F90346002B26
:104D900017D0BB6A24337A681146184600F0D2FD5A
:104DA000B86A00F0B7F800F003FC0346002B89D185
:104DB0000F4B4FF080521A60BFF34F8FBFF36F8FCE
:104DC00080E7B86A00F0A6F800F0F2FB7AE7B86A6C
:104DD00000F0A0F800F0ECFBB86A00F0EDF8034634
:104DE000002B3FF46FAF002318463037BD4680BD1F
:104DF00004ED00E080B586B000AFF860B9607A607D
:104E000000237B61FB689B6B3B61FB681B6C002B89
:104E10000DD1FB681B68002B4DD1FB689B681846C1
:104E200000F0C6FF7861FB6800229A6043E07B686F
:104E3000002B19D1FB685868FB681B6C1A46B968CF
:104E400002F03EF8FB685A68FB681B6C1A44FB686A
:104E50005A60FB685A68FB689B689A422BD3FB68D0
:104E60001A68FB685A6026E0FB68D868FB681B6C10
:104E70001A46B96802F024F8FB68DA68FB681B6C14
:104E80005B421A44FB68DA60FB68DA68FB681B68FF
:104E90009A4207D2FB689A68FB681B6C5B421A4413
:104EA000FB68DA607B68022B05D13B69002B02D0DE
:104EB0003B69013B3B613B695A1CFB689A637B6918
:104EC00018461837BD4680BD80B582B000AF786007
:104ED00039607B681B6C002B18D07B68DA687B68B4
:104EE0001B6C1A447B68DA607B68DA687B689B68B5
:104EF0009A4203D37B681A687B68DA607B68D9685A
:104F00007B681B6C1A46386801F0DAFF00BF08376F
:104F1000BD4680BD80B584B000AF786001F056FC1E
:104F20007B6893F84530FB7311E07B685B6A002B6C
:104F300012D07B682433184600F056FD0346002B40
:104F400001D000F02FFEFB7B013BDBB2FB7397F936
:104F50000F30002BE9DC00E000BF7B68FF2283F804
:104F6000452001F063FC01F031FC7B6893F844308C
:104F7000BB7311E07B681B69002B12D07B68103378
:104F8000184600F031FD0346002B01D000F00AFE68
:104F9000BB7B013BDBB2BB7397F90E30002BE9DC26
:104FA00000E000BF7B68FF2283F8442001F03EFC54
:104FB00000BF1037BD4680BD80B584B000AF7860BB
:104FC00001F004FC7B689B6B002B02D10123FB608A
:104FD00001E00023FB6001F029FCFB681846103754
:104FE000BD4680BD80B584B000AF786001F0EEFBB7
:104FF0007B689A6B7B68DB6B9A4202D10123FB6072
:1050000001E00023FB6001F011FCFB68184610373B
:10501000BD4680BD80B485B000AF786039600023A4
:10502000FB6014E00E4AFB6852F83330002B0BD1C2
:105030000B49FB683A6841F83320094AFB68DB00FA
:1050400013447A685A6006E0FB680133FB60FB6832
:10505000072BE7D900BF00BF1437BD4680BC70479F
:10506000300B002080B586B000AFF860B9607A6080
:10507000FB687B6101F0AAFB7B6993F844305BB26B
:10508000B3F1FF3F03D17B69002283F844207B69A1
:1050900093F845305BB2B3F1FF3F03D17B69002247
:1050A00083F8452001F0C2FB7B699B6B002B06D186
:1050B0007B6924337A68B968184600F069FC78691E
:1050C000FFF728FF00BF1837BD4680BD80B58EB002
:1050D00004AFF860B9607A603B607B6B002B0BD14A
:1050E0004FF0500383F31188BFF36F8FBFF34F8FDF
:1050F0003B6200BF00BFFDE7BB6B002B0BD14FF045
:10510000500383F31188BFF36F8FBFF34F8FFB61A1
:1051100000BF00BFFDE7A8233B613B69A82B0BD074
:105120004FF0500383F31188BFF36F8FBFF34F8F9E
:10513000BB6100BF00BFFDE73B69BB6B002B1ED00E
:105140007B6B002B1BD0BB6B7B627B6A7A6B1A6319
:105150007B6A022283F8A520002303937B6A0293D3
:1051600007F1140301933B6B00933B687A68B968BD
:10517000F86800F051F8786A00F0F6F801E00023D2
:105180007B617B6918462837BD4680BD80B58CB0F1
:1051900004AFF860B9603B601346FB80FB889B005E
:1051A000184601F015FC78617B69002B0ED0A82011
:1051B00001F00EFCF861FB69002B03D0FB697A69F2
:1051C0001A6305E0786901F0D1FC01E00023FB617E
:1051D000FB69002B17D0FB69002283F8A520FA8811
:1051E00000230393FB690293FB6A0193BB6A00935C
:1051F0003B68B968F86800F00FF8F86900F0B4F897
:105200000123BB6102E04FF0FF33BB61BB6918466D
:105210002037BD4680BD000080B588B000AFF86083
:10522000B9607A603B603B6B186B7B689B001A46E9
:10523000A52101F0B9FD3B6B1A6B7B6803F180433C
:10524000013B9B001344BB61BB6923F00703BB61B7
:10525000BB6903F00703002B0BD04FF0500383F31F
:105260001188BFF36F8FBFF34F8F7B6100BF00BF0B
:10527000FDE7BB68002B1FD00023FB6112E0BA687A
:10528000FB69134419783A6BFB69134434330A46BB
:105290001A70BA68FB6913441B78002B06D0FB69AF
:1052A0000133FB61FB690F2BE9D900E000BF3B6BC9
:1052B000002283F8432003E03B6B002283F8342074
:1052C000BB6A372B01D93723BB623B6BBA6ADA6200
:1052D0003B6BBA6ADA643B6B00221A653B6B0433A2
:1052E0001846FFF76AF93B6B18331846FFF765F964
:1052F0003B6B3A6B1A61BB6AC3F138023B6B9A6134
:105300003B6B3A6B5A623B6B0022C3F8A0203B6BAD
:10531000002283F8A4203B6B54334C220021184612
:1053200001F042FD3B6B0D4A9A653B6B0C4ADA6516
:105330003B6B0C4A1A663A68F968B86901F054F98F
:1053400002463B6B1A60FB6A002B02D0FB6A3A6B89
:105350001A6000BF2037BD4680BD00BFC41D0020BD
:105360002C1E0020941E002080B582B000AF786013
:1053700001F02CFA2D4B1B6801332C4A13602C4B87
:105380001B68002B09D12A4A7B681360274B1B68D6
:10539000012B10D100F02AFC0DE0264B1B68002BDE
:1053A00009D1234B1B68DA6A7B68DB6A9A4202D810
:1053B0001F4A7B681360204B1B6801331E4A136031
:1053C0001D4B1A687B685A647B68DA6A1B4B1B6842
:1053D0009A4203D97B68DB6A184A13607B68DA6AF1
:1053E00013469B0013449B00154A1A447B68043300
:1053F00019461046FFF7EDF801F018FA0D4B1B683F
:10540000002B0ED00A4B1B68DA6A7B68DB6A9A4273
:1054100007D20C4B4FF080521A60BFF34F8FBFF38F
:105420006F8F00BF0837BD4680BD00BF441000200D
:10543000700B002050100020601000204C10002045
:10544000740B002004ED00E080B584B000AF7860FC
:105450000023FB607B68002B18D0144B1B68002BCB
:105460000BD04FF0500383F31188BFF36F8FBFF35E
:105470004F8FBB6000BF00BFFDE700F08BF800213D
:10548000786800F005FD00F093F8F860FB68002BE9
:1054900007D1074B4FF080521A60BFF34F8FBFF315
:1054A0006F8F00BF1037BD4680BD00BF6C1000205D
:1054B00004ED00E080B58AB004AF0023BB60002398
:1054C0007B603A46391D07F108031846FFF724F8B8
:1054D00039687B68BA680292019300230093002325
:1054E0000A4624492448FFF7F1FD0346234A136086
:1054F000224B1B68002B02D001237B6101E00023BB
:105500007B617B69012B02D100F016FD78617B691C
:10551000012B1BD14FF0500383F31188BFF36F8F22
:10552000BFF34F8F3B6100BF154B1B685433154AC7
:105530001360154B4FF0FF321A60144B01221A60B2
:10554000134B00221A6001F0CFF80FE07B69B3F132
:10555000FF3F0BD14FF0500383F31188BFF36F8FE0
:10556000BFF34F8FFB6000BF00BFFDE700BF1837E0
:10557000BD4680BDCC6F0008BD5B000868100020F0
:10558000700B00201000002064100020501000203C
:105590004810002080B400AF044B1B680133034A5D
:1055A000136000BFBD4680BC704700BF6C10002078
:1055B00080B584B000AF0023FB600023BB60424B8A
:1055C0001B68002B0BD14FF0500383F31188BFF3FE
:1055D0006F8FBFF34F8F3B6000BF00BFFDE701F04F
:1055E000F5F8394B1B68013B374A1360364B1B6893
:1055F000002B62D1354B1B68002B5ED02FE0344B63
:10560000DB68DB68FB60FB6818331846FFF73CF883
:10561000FB6804331846FFF737F8FB68DA6A2D4B4E
:105620001B689A4203D9FB68DB6A2A4A1360FB684D
:10563000DA6A13469B0013449B00274A1A44FB680E
:10564000043319461046FEF7C4FFFB68DA6A234BA1
:105650001B68DB6A9A4202D3214B01221A601C4B61
:105660001B68002BCBD1FB68002B01D000F062FB44
:105670001C4B1B687B607B68002B10D000F044F84B
:105680000346002B02D0164B01221A607B68013BB7
:105690007B607B68002BF1D1124B00221A60104B0B
:1056A0001B68002B09D00123BB600F4B4FF08052C9
:1056B0001A60BFF34F8FBFF36F8F01F0B7F8BB686D
:1056C00018461037BD4680BD6C10002044100020E5
:1056D000041000204C100020740B0020700B0020E0
:1056E000581000205410002004ED00E080B483B076
:1056F00000AF044B1B687B607B6818460C37BD46C7
:1057000080BC70474810002080B586B000AF0023F1
:105710007B614F4B1B68002B40F090804D4B1B680A
:1057200001333B614B4A3B6913603B69002B21D13C
:10573000494B1B681B68002B0BD04FF0500383F3C1
:105740001188BFF36F8FBFF34F8F3B6000BF00BF67
:10575000FDE7414B1B68FB60404B1B683E4A1360F2
:105760003E4AFB6813603E4B1B6801333C4A1360A2
:1057700000F0E0FA3B4B1B683A699A4249D3364B3A
:105780001B681B68002B04D1364B4FF0FF321A60A8
:105790003FE0314B1B68DB68DB68BB60BB685B6864
:1057A0007B603A697B689A4203D22E4A7B68136019
:1057B0002FE0BB6804331846FEF766FFBB689B6AA0
:1057C000002B04D0BB6818331846FEF75DFFBB689A
:1057D000DA6A254B1B689A4203D9BB68DB6A224A06
:1057E0001360BB68DA6A13469B0013449B001F4A90
:1057F0001A44BB68043319461046FEF7EAFEBB683C
:10580000DA6A1B4B1B68DB6A9A42B8D301237B61BF
:10581000B5E7174B1B68DA6A144913469B0013441B
:105820009B000B441B68012B01D901237B61114BA9
:105830001B68002B07D001237B6104E00E4B1B6823
:1058400001330D4A13607B6918461837BD4680BD89
:105850006C10002048100020FC0F002000100020D9
:105860005C100020641000204C100020740B0020FD
:10587000700B0020581000205410002080B485B018
:1058800000AF2A4B1B68002B03D0294B01221A6062
:1058900047E0274B00221A60264B1B68FB6011E093
:1058A000FB68002B0BD14FF0500383F31188BFF33B
:1058B0006F8FBFF34F8F7B6000BF00BFFDE7FB68BA
:1058C000013BFB601C49FA6813469B0013449B0094
:1058D0000B441B68002BE3D0FA6813469B0013446B
:1058E0009B00154A1344BB60BB685B685A68BB6881
:1058F0005A60BB685A68BB6808339A4204D1BB68D7
:105900005B685A68BB685A60BB685B68DB680B4AB7
:105910001360084AFB681360084B1B685433084A3D
:10592000136000BF1437BD4680BC70476C10002068
:10593000581000204C100020740B0020700B002029
:105940001000002080B584B000AF786039607B68BB
:10595000002B0BD14FF0500383F31188BFF36F8FEF
:10596000BFF34F8FFB6000BF00BFFDE7074B1B6815
:10597000183319467868FEF74FFE0121386800F0A9
:1059800087FA00BF1037BD4680BD00BF700B0020F6
:1059900080B586B000AFF860B9607A60FB68002B14
:1059A0000BD14FF0500383F31188BFF36F8FBFF318
:1059B0004F8F7B6100BF00BFFDE70A4B1B681833A8
:1059C0001946F868FEF705FE7B68002B02D04FF001
:1059D000FF33BB607968B86800F05AFA00BF183727
:1059E000BD4680BD700B002080B586B000AF7860EA
:1059F0007B68DB68DB683B613B69002B0BD14FF0B8
:105A0000500383F31188BFF36F8FBFF34F8FFB6099
:105A100000BF00BFFDE73B6918331846FEF734FEB0
:105A20001D4B1B68002B1DD13B6904331846FEF744
:105A30002BFE3B69DA6A194B1B689A4203D93B6912
:105A4000DB6A164A13603B69DA6A13469B0013440B
:105A50009B00134A1A443B69043319461046FEF76B
:105A6000B8FD05E03B69183319460E48FEF7B1FD55
:105A70003B69DA6A0C4B1B68DB6A9A4205D9012341
:105A80007B610A4B01221A6001E000237B617B6984
:105A900018461837BD4680BD6C1000204C10002001
:105AA000740B002004100020700B00205810002000
:105AB00080B483B000AF7860064B1A687B681A60C8
:105AC000054B1A687B685A6000BF0C37BD4680BC26
:105AD000704700BF5C1000204810002080B588B0DF
